:100000000C9458000C9477000C9477000C947700B3
:100010000C9477000C9477000C9477000C94770084
:100020000C9477000C9477000C9477000C94770074
:100030000C9477000C94EB010C9477000C947700EF
:100040000C9477000C9477000C9477000C94770054
:100050000C9477000C9477000C9477000C94770044
:100060000C9477000C9477000C9477000C94770034
:100070000C9477000C9477000C9477000C94770024
:100080000C9477000C9477000C9477005C03630366
:100090009D03A403B603BD03E103CF03F3034E04A2
:1000A0004E041E044E0432044E04490446044E0419
:1000B00011241FBECFEFD0E4DEBFCDBF11E0A0E022
:1000C000B1E0E4E6FCE000E00BBF02C007900D9257
:1000D000A233B107D9F721E0A2E3B1E001C01D923C
:1000E000A134B207E1F70E9453040C9430060C943B
:1000F0000000CF93DF93CDB7DEB781E00E94A00070
:100100000000DF91CF910895CF93DF93CDB7DEB795
:1001100084E690E00E94440188E30E94A00086E00B
:100120000E94A0008FE00E94A00081E00E94A00039
:100130008AE090E00E9444010000DF91CF91089591
:10014000CF93DF931F92CDB7DEB789838BE290E028
:100150002BE230E0F90120812F7BFC01208388E233
:1001600090E02981FC0120838BE290E02BE230E0DB
:10017000F90120812068FC01208300008BE290E0DF
:100180002BE230E0F90120812F77FC01208382E00F
:1001900090E00E94440100000F90DF91CF910895FC
:1001A000CF93DF931F92CDB7DEB789838BE290E0C8
:1001B0002BE230E0F90120812064FC01208388E2F9
:1001C00090E02981FC0120838BE290E02BE230E07B
:1001D000F90120812068FC01208300008BE290E07F
:1001E0002BE230E0F90120812F77FC01208381E0B0
:1001F00090E00E94440100000F90DF91CF9108959C
:10020000CF93DF9300D000D0CDB7DEB78A837C8355
:100210006B830E9479008A81898311C0898191E072
:10022000980F99830E942D018B819C819C012F5FE7
:100230003F4F3C832B83FC0180810E94D0008B8147
:100240009C81FC018081882349F700000F900F906A
:100250000F900F90DF91CF910895CF93DF931F926E
:10026000CDB7DEB789838981813128F489818158AE
:100270000E94A00004C0898181550E94A000000056
:100280000F90DF91CF910895CF93DF9300D000D0EE
:1002900000D0CDB7DEB79E838D831A82198213C03A
:1002A0001C821B8206C000008B819C8101969C836E
:1002B0008B838B819C8187309340ACF389819A81B9
:1002C00001969A83898329813A818D819E8128179D
:1002D000390734F3000026960FB6F894DEBF0FBE40
:1002E000CDBFDF91CF910895CF93DF9300D01F92C0
:1002F000CDB7DEB789837B836A8389818A3031F405
:100300008A819B81BC018DE00E94740180EC90E0A9
:10031000FC018081882F90E080729927892BB1F3AE
:1003200086EC90E02981FC01208380E090E00F9032
:100330000F900F90DF91CF910895CF93DF93CDB7BA
:10034000DEB781E890E02BE0FC01208388E890E0B4
:100350002DE730E0FC01318320838FE690E022E03E
:10036000FC01208384E890E0FC01118210828091DE
:100370000E0190910F01A0911001B0911101809395
:10038000330190933401A0933501B09336018FE58A
:1003900090E02FE530E0F90120812068FC01208306
:1003A0000000DF91CF910895CF93DF93CDB7DEB7F3
:1003B00081E890E0FC0110820000DF91CF91089568
:1003C000CF93DF93CDB7DEB781E080933201000099
:1003D000DF91CF9108951F920F9200905F000F92CE
:1003E000112400905B000F922F933F934F935F93E4
:1003F0006F937F938F939F93AF93BF93EF93FF93ED
:10040000CF93DF93CDB7DEB7809133019091340164
:10041000A0913501B09136010197A109B1098093EE
:10042000330190933401A0933501B093360180914C
:10043000330190913401A0913501B0913601892B9F
:100440008A2B8B2B91F40E94E00180910E019091F8
:100450000F01A0911001B09111018093330190938D
:100460003401A0933501B09336010000DF91CF91A4
:10047000FF91EF91BF91AF919F918F917F916F917C
:100480005F914F913F912F910F9000925B000F90E1
:1004900000925F000F901F901895CF93DF9300D0CC
:1004A00000D0CDB7DEB769837A838B839C83898143
:1004B0009A81AB81BC8180930E0190930F01A09330
:1004C0001001B093110180910E0190910F01A09144
:1004D0001001B09111018093330190933401A093E6
:1004E0003501B093360100000F900F900F900F90E0
:1004F000DF91CF9108950F931F93CF93DF9300D097
:1005000000D0CDB7DEB769837A838B839C838091DB
:10051000380190913901A0913A01B0913B019C01C1
:10052000AD0169817A818B819C810E949C04882322
:1005300009F477C020E030E0A90169817A818B81DC
:100540009C810E949C04882351F481E990E021E978
:1005500030E0F90120812870FC01208309C081E985
:1005600090E021E930E0F90120812360FC01208343
:1005700028E539E344E75FE369817A818B819C81D7
:100580000E949C04882344F488E990E02FEF3FEF19
:10059000FC013183208334C020E034E244EF56E490
:1005A00069817A818B819C810E94BE05181634F482
:1005B00088E990E0FC011182108222C008E910E075
:1005C00020E030E040E053E469817A818B819C81B6
:1005D0000E94C305DC01CB019C01AD0160E074E227
:1005E00084EF9AE40E94A104DC01CB01BC01CD019F
:1005F0000E941305DC01CB010197F80191838083F0
:1006000084E990E0FC011182108289819A81AB819A
:10061000BC818093380190933901A0933A01B09343
:100620003B0100000F900F900F900F90DF91CF9142
:100630001F910F910895CF93DF93CDB7DEB780E977
:1006400090E020E4FC01208381E990E02BE0FC01B4
:10065000208360E070E0CB010E947B020000DF910C
:10066000CF910895CF93DF93CDB7DEB780E990E0C7
:10067000FC01108281E990E0FC0110820000DF9112
:10068000CF910895CF93DF93CDB7DEB780913C0132
:1006900090913D01CC01A0E0B0E040E050E028E0C6
:1006A00030E0841B950B2817390708F4ADC08A5B2E
:1006B0009F4FFC010C94930487E090E090933D01E0
:1006C00080933C01A6C080914001882381F08091F5
:1006D0003701873028F4809137018F5F809337018D
:1006E00082E090E090933D0180933C0192C0809124
:1006F0003F01882381F080913701882329F0809180
:10070000370181508093370184E090E090933D0160
:1007100080933C017EC080913E01882339F088E0BF
:1007200090E090933D0180933C0173C081E090E0A4
:1007300090933D0180933C016CC083E090E09093E6
:100740003D0180933C0165C080914001882339F4CC
:1007500081E090E090933D0180933C015AC083E09A
:1007600090E090933D0180933C0153C085E090E080
:1007700090933D0180933C014CC080913F018823C0
:1007800039F481E090E090933D0180933C0141C0B9
:1007900085E090E090933D0180933C013AC08091C8
:1007A0003E01882339F086E090E090933D018093EC
:1007B0003C012FC087E090E090933D0180933C0185
:1007C00028C080913E01882339F481E090E0909325
:1007D0003D0180933C011DC086E090E090933D0177
:1007E00080933C0116C080913E01882339F487E054
:1007F00090E090933D0180933C0106C088E090E03A
:1008000090933D0180933C0110923D0110923C0178
:10081000000080913C0190913D01CC01A0E0B0E04E
:1008200040E050E028E030E0841B950B28173907A2
:1008300098F1815B9F4FFC010C94930480913701E8
:10084000882F90E0880F991F880F991F8E5E9E4F0A
:10085000FC0180819181A281B381BC01CD010E9404
:100860007B021DC080913701882F90E0880F991F6F
:10087000880F991F8E5E9E4FFC0180819181A2811D
:10088000B381BC01CD010E947B0209C00E943203EA
:1008900006C00E941B0303C0000001C0000000004E
:1008A000DF91CF910895CF93DF93CDB7DEB781E28B
:1008B00090E0FC01108282E290E02FEFFC012083A7
:1008C00084E290E02FEFFC01208385E290E0FC01C0
:1008D00010820E941B0310923D0110923C01109265
:1008E000370180E290E0FC018081882F90E08170E8
:1008F000992721E0892B09F020E0822F8093400185
:1009000080E290E0FC0180818095827080933F01BD
:1009100080E290E0FC0180818095847080933E01AC
:100920000E944203DECFEE0FFF1F0024001C0BBE0F
:100930000790F691E02D09940E94490508F481E0A2
:1009400008950E94B5040C9484050E947D0558F01A
:100950000E94760540F029F45F3F29F00C946D0564
:1009600051110C94B8050C9473050E94950568F319
:100970009923B1F3552391F3951B550BBB27AA2758
:1009800062177307840738F09F5F5F4F220F331F92
:10099000441FAA1FA9F335D00E2E3AF0E0E832D05A
:1009A00091505040E695001CCAF72BD0FE2F29D05D
:1009B000660F771F881FBB1F261737074807AB072F
:1009C000B0E809F0BB0B802DBF01FF2793585F4FA4
:1009D0003AF09E3F510578F00C946D050C94B805E3
:1009E0005F3FE4F3983ED4F3869577956795B79586
:1009F000F7959F5FC9F7880F911D9695879597F991
:100A00000895E1E0660F771F881FBB1F6217730709
:100A10008407BA0720F0621B730B840BBA0BEE1F1E
:100A200088F7E09508950E941A056894B1110C9416
:100A3000B80508950E949D0588F09F5798F0B92F3A
:100A40009927B751B0F0E1F0660F771F881F991F03
:100A50001AF0BA95C9F714C0B13091F00E94B705E9
:100A6000B1E008950C94B705672F782F8827B85FF9
:100A700039F0B93FCCF3869577956795B395D9F75B
:100A80003EF490958095709561957F4F8F4F9F4F65
:100A90000895990F0008550FAA0BE0E8FEEF16160F
:100AA0001706E807F907C0F012161306E407F50762
:100AB00098F0621B730B840B950B39F40A2661F0D6
:100AC000232B242B252B21F408950A2609F4A14079
:100AD000A6958FEF811D811D089597F99F6780E886
:100AE00070E060E008959FEF80EC089500240A9480
:100AF0001616170618060906089500240A941216F9
:100B00001306140605060895092E0394000C11F42B
:100B1000882352F0BB0F40F4BF2B11F460FF04C0D8
:100B20006F5F7F4F8F4F9F4F089557FD9058440F31
:100B3000551F59F05F3F71F04795880F97FB991F3C
:100B400061F09F3F79F087950895121613061406F9
:100B5000551FF2CF4695F1DF08C016161706180686
:100B6000991FF1CF86957105610508940895E89461
:100B7000BB2766277727CB0197F908950E9449057F
:100B800008F48FEF08950E94D6050C9484050E9406
:100B9000760538F00E947D0520F0952311F00C9425
:100BA0006D050C94730511240C94B8050E949505ED
:100BB00070F3959FC1F3950F50E0551F629FF001B0
:100BC000729FBB27F00DB11D639FAA27F00DB11DC9
:100BD000AA1F649F6627B00DA11D661F829F222752
:100BE000B00DA11D621F739FB00DA11D621F839FD9
:100BF000A00D611D221F749F3327A00D611D231FAF
:100C0000849F600D211D822F762F6A2F11249F57FC
:100C100050409AF0F1F088234AF0EE0FFF1FBB1FFF
:100C2000661F771F881F91505040A9F79E3F5105BE
:100C300080F00C946D050C94B8055F3FE4F3983E8A
:100C4000D4F3869577956795B795F795E7959F5F68
:100C5000C1F7FE2B880F911D9695879597F90895FA
:040C6000F894FFCF36
:100C64000000000200000000740100000000010008
:100C74000000A4D082437BD49243A4D0A443719DAA
:100C8400AE430000C4430000DC43A4F0F64300D0AC
:020C9400024418
:00000001FF
