:100000000C9446000C9465000C9465000C946500FB
:100010000C9465000C9465000C9465000C946500CC
:100020000C9465000C9465000C9465000C946500BC
:100030000C9465000C94D9010C9465000C94650037
:100040000C9465000C9465000C9465000C9465009C
:100050000C9465000C9465000C9465000C9465008C
:100060000C9465000C9465000C9465000C9465007C
:100070000C9465000C9465000C9465000C9465006C
:100080000C9465000C9465000C94650011241FBE4F
:10009000CFEFD0E4DEBFCDBF11E0A0E0B1E0E6E9F4
:1000A000FBE000E00BBF02C007900D92AA37B1073A
:1000B000D9F721E0AAE7B1E001C01D92A838B20744
:1000C000E1F70E94F8030C94C9050C940000CF934B
:1000D000DF93CDB7DEB781E00E948E000000DF9194
:1000E000CF910895CF93DF93CDB7DEB784E690E04C
:1000F0000E94320188E30E948E0086E00E948E00FA
:100100008FE00E948E0081E00E948E008AE090E0E5
:100110000E9432010000DF91CF910895CF93DF93C9
:100120001F92CDB7DEB789838BE290E02BE230E0FF
:10013000F90120812F7BFC01208388E290E0298156
:10014000FC0120838BE290E02BE230E0F90120817A
:100150002068FC01208300008BE290E02BE230E07D
:10016000F90120812F77FC01208382E090E00E943A
:10017000320100000F90DF91CF910895CF93DF936C
:100180001F92CDB7DEB789838BE290E02BE230E09F
:10019000F90120812064FC01208388E290E029811C
:1001A000FC0120838BE290E02BE230E0F90120811A
:1001B0002068FC01208300008BE290E02BE230E01D
:1001C000F90120812F77FC01208381E090E00E94DB
:1001D000320100000F90DF91CF910895CF93DF930C
:1001E00000D000D0CDB7DEB78A837C836B830E94BA
:1001F00067008A81898311C0898191E0980F998372
:100200000E941B018B819C819C012F5F3F4F3C838F
:100210002B83FC0180810E94BE008B819C81FC01AC
:100220008081882349F700000F900F900F900F9066
:10023000DF91CF910895CF93DF931F92CDB7DEB7B3
:1002400089838981813128F4898181580E948E00B7
:1002500004C0898181550E948E0000000F90DF91BB
:10026000CF910895CF93DF9300D000D000D0CDB7C9
:10027000DEB79E838D831A82198213C01C821B8273
:1002800006C000008B819C8101969C838B838B81AF
:100290009C8187309340ACF389819A8101969A833F
:1002A000898329813A818D819E812817390734F30A
:1002B000000026960FB6F894DEBF0FBECDBFDF91CB
:1002C000CF910895CF93DF9300D01F92CDB7DEB7C3
:1002D00089837B836A8389818A3031F48A819B8117
:1002E000BC018DE00E94620180EC90E0FC01808105
:1002F000882F90E080729927892BB1F386EC90E0EB
:100300002981FC01208380E090E00F900F900F90F6
:10031000DF91CF910895CF93DF93CDB7DEB781E81A
:1003200090E02BE0FC01208388E890E02DE730E0AE
:10033000FC01318320838FE690E022E0FC012083E2
:1003400084E890E0FC011182108280910E0190916E
:100350000F01A0911001B091110180937B01909346
:100360007C01A0937D01B0937E018FE590E02FE5A5
:1003700030E0F90120812068FC0120830000DF913A
:10038000CF910895CF93DF93CDB7DEB781E890E0AA
:10039000FC0110820000DF91CF910895CF93DF938D
:1003A000CDB7DEB781E080937A010000DF91CF9175
:1003B00008951F920F9200905F000F9211240090F9
:1003C0005B000F922F933F934F935F936F937F93B5
:1003D0008F939F93AF93BF93EF93FF93CF93DF934D
:1003E000CDB7DEB780917B0190917C01A0917D011A
:1003F000B0917E010197A109B10980937B0190938F
:100400007C01A0937D01B0937E0180917B0190914E
:100410007C01A0917D01B0917E01892B8A2B8B2BD1
:1004200091F40E94CE0180910E0190910F01A09154
:100430001001B091110180937B0190937C01A093F6
:100440007D01B0937E010000DF91CF91FF91EF918C
:10045000BF91AF919F918F917F916F915F914F91DC
:100460003F912F910F9000925B000F9000925F00E0
:100470000F901F901895CF93DF9300D000D0CDB789
:10048000DEB769837A838B839C8389819A81AB8170
:10049000BC8180930E0190930F01A0931001B09343
:1004A000110180910E0190910F01A0911001B09166
:1004B000110180937B0190937C01A0937D01B09307
:1004C0007E0100000F900F900F900F90DF91CF9161
:1004D00008950F931F93CF93DF9300D000D0CDB733
:1004E000DEB769837A838B839C83809181019091AD
:1004F0008201A0918301B09184019C01AD016981C9
:100500007A818B819C810E943504882309F477C00D
:1005100020E030E0A90169817A818B819C810E9471
:100520003504882351F481E990E021E930E0F901B4
:1005300020812870FC01208309C081E990E021E935
:1005400030E0F90120812360FC01208328E539E3B4
:1005500044E75FE369817A818B819C810E94350445
:10056000882344F488E990E02FEF3FEFFC013183CA
:10057000208334C020E034E244EF56E469817A817C
:100580008B819C810E945705181634F488E990E00D
:10059000FC011182108222C008E910E020E030E066
:1005A00040E053E469817A818B819C810E945C05E3
:1005B000DC01CB019C01AD0160E074E284EF9AE4C0
:1005C0000E943A04DC01CB01BC01CD010E94AC04C5
:1005D000DC01CB010197F8019183808384E990E0ED
:1005E000FC011182108289819A81AB81BC81809348
:1005F000810190938201A0938301B0938401000054
:100600000F900F900F900F90DF91CF911F910F914E
:100610000895CF93DF93CDB7DEB780E990E020E473
:10062000FC01208381E990E02BE0FC01208360E065
:1006300070E0CB010E9469020000DF91CF91089524
:10064000CF93DF93CDB7DEB780E990E0FC01108255
:1006500081E990E0FC0110820000DF91CF910895C4
:10066000CF93DF93CDB7DEB780918501909186015E
:100670008230910571F18330910528F4009771F073
:10068000019799F073C08430910509F44BC0843010
:100690009105B0F1059709F457C068C081E090E07A
:1006A000909386018093850166C08091870188239D
:1006B00049F010927F0182E090E090938601809350
:1006C000850159C081E090E0909386018093850177
:1006D00052C080917F01893160F480917F018F5FEA
:1006E00080937F0182E090E0909386018093850162
:1006F00042C083E090E090938601809385013BC0E7
:1007000080918701882339F484E090E090938601FA
:100710008093850130C083E090E0909386018093C0
:10072000850129C080918701882339F085E090E018
:1007300090938601809385011EC083E090E09093A2
:1007400086018093850117C080918701882339F441
:1007500081E090E090938601809385010CC085E054
:1007600090E0909386018093850105C010928601E8
:100770001092850100008091850190918601823060
:100780009105B9F08330910528F4009731F1019774
:1007900051F02AC08430910511F18430910508F19F
:1007A000059709F121C060E070E0CB010E94690269
:1007B0001BC080917F01882F90E0880F991F880FC0
:1007C000991F8E5E9E4FFC0180819181A281B38131
:1007D000BC01CD010E94690207C0000005C00000F5
:1007E00003C0000001C000000000DF91CF91089518
:1007F000CF93DF93CDB7DEB781E290E0FC011082AA
:1008000082E290E02FEFFC01208384E290E02FEF62
:10081000FC01208385E290E0FC01108260E971E038
:1008200080E090E00E943B020E948B010E9409033D
:10083000109286011092850180E290E0FC01808197
:10084000882F90E08170992721E0892B09F020E022
:10085000822F809387010E943003000080917A01EB
:100860008823E1F310927A01E7CF0E94E20408F4B2
:1008700081E008950E944E040C941D050E94160507
:1008800058F00E940F0540F029F45F3F29F00C94C6
:10089000060551110C9451050C940C050E942E056F
:1008A00068F39923B1F3552391F3951B550BBB279F
:1008B000AA2762177307840738F09F5F5F4F220FE4
:1008C000331F441FAA1FA9F335D00E2E3AF0E0E8DB
:1008D00032D091505040E695001CCAF72BD0FE2F25
:1008E00029D0660F771F881FBB1F261737074807B9
:1008F000AB07B0E809F0BB0B802DBF01FF27935871
:100900005F4F3AF09E3F510578F00C9406050C9429
:1009100051055F3FE4F3983ED4F38695779567954C
:10092000B795F7959F5FC9F7880F911D96958795A5
:1009300097F90895E1E0660F771F881FBB1F6217C4
:1009400073078407BA0720F0621B730B840BBA0B82
:10095000EE1F88F7E09508950E94B3046894B111E2
:100960000C94510508950E94360588F09F5798F021
:10097000B92F9927B751B0F0E1F0660F771F881FA4
:10098000991F1AF0BA95C9F714C0B13091F00E94BE
:100990005005B1E008950C945005672F782F8827F3
:1009A000B85F39F0B93FCCF3869577956795B395E5
:1009B000D9F73EF490958095709561957F4F8F4F54
:1009C0009F4F0895990F0008550FAA0BE0E8FEEF1E
:1009D00016161706E807F907C0F012161306E40703
:1009E000F50798F0621B730B840B950B39F40A26FC
:1009F00061F0232B242B252B21F408950A2609F4DA
:100A0000A140A6958FEF811D811D089597F99F67DD
:100A100080E870E060E008959FEF80EC0895002486
:100A20000A941616170618060906089500240A9453
:100A300012161306140605060895092E0394000CD9
:100A400011F4882352F0BB0F40F4BF2B11F460FF68
:100A500004C06F5F7F4F8F4F9F4F089557FD905891
:100A6000440F551F59F05F3F71F04795880F97FB72
:100A7000991F61F09F3F79F087950895121613062C
:100A80001406551FF2CF4695F1DF08C0161617065B
:100A90001806991FF1CF8695710561050894089590
:100AA000E894BB2766277727CB0197F908950E9422
:100AB000E20408F48FEF08950E946F050C941D0561
:100AC0000E940F0538F00E94160520F0952311F0C2
:100AD0000C9406050C940C0511240C9451050E94ED
:100AE0002E0570F3959FC1F3950F50E0551F629F3F
:100AF000F001729FBB27F00DB11D639FAA27F00D77
:100B0000B11DAA1F649F6627B00DA11D661F829F9D
:100B10002227B00DA11D621F739FB00DA11D621F82
:100B2000839FA00D611D221F749F3327A00D611D9F
:100B3000231F849F600D211D822F762F6A2F112481
:100B40009F5750409AF0F1F088234AF0EE0FFF1FB4
:100B5000BB1F661F771F881F91505040A9F79E3F0B
:100B6000510580F00C9406050C9451055F3FE4F3A9
:100B7000983ED4F3869577956795B795F795E79561
:100B80009F5FC1F7FE2B880F911D9695879597F96A
:060B90000895F894FFCF68
:100B960000000002000000006201000000000100E9
:100BA6000000A4D0A443A4D0A443A4D0A443A4D0BA
:100BB600A443A4D0A443A4D0A443A4D0A443000037
:100BC600C443A4D082437BD49243A4D0A443719D52
:100BD600AE43719DAE43719DAE43719DAE43719D13
:100BE600AE43A4D0A443A4D0A443A4D0A443A4D089
:100BF600A443A4D0A4437BD492437BD49243A4D0F1
:0A0C0600A4437BD492430000C443D2
:00000001FF
