:100000000C9446000C9465000C9465000C946500FB
:100010000C9465000C9465000C9465000C946500CC
:100020000C9465000C9465000C9465000C946500BC
:100030000C9465000C9465000C9465000C946500AC
:100040000C9465000C9465000C9465000C9465009C
:100050000C9465000C9465000C9465000C9465008C
:100060000C9465000C9465000C9465000C9465007C
:100070000C9465000C9465000C9465000C9465006C
:100080000C9465000C9465000C94650011241FBE4F
:10009000CFEFD0E4DEBFCDBF11E0A0E0B1E0E8EBF0
:1000A000F9E000E00BBF02C007900D92AE30B1073F
:1000B000D9F721E0AEE0B1E001C01D92A731B2074F
:1000C000E1F70E9408030C94DA040C940000CF932B
:1000D000DF93CDB7DEB781E00E948E000000DF9194
:1000E000CF910895CF93DF93CDB7DEB784E690E04C
:1000F0000E94320188E30E948E0086E00E948E00FA
:100100008FE00E948E0081E00E948E008AE090E0E5
:100110000E9432010000DF91CF910895CF93DF93C9
:100120001F92CDB7DEB789838BE290E02BE230E0FF
:10013000F90120812F7BFC01208388E290E0298156
:10014000FC0120838BE290E02BE230E0F90120817A
:100150002068FC01208300008BE290E02BE230E07D
:10016000F90120812F77FC01208382E090E00E943A
:10017000320100000F90DF91CF910895CF93DF936C
:100180001F92CDB7DEB789838BE290E02BE230E09F
:10019000F90120812064FC01208388E290E029811C
:1001A000FC0120838BE290E02BE230E0F90120811A
:1001B0002068FC01208300008BE290E02BE230E01D
:1001C000F90120812F77FC01208381E090E00E94DB
:1001D000320100000F90DF91CF910895CF93DF930C
:1001E00000D000D0CDB7DEB78A837C836B830E94BA
:1001F00067008A81898311C0898191E0980F998372
:100200000E941B018B819C819C012F5F3F4F3C838F
:100210002B83FC0180810E94BE008B819C81FC01AC
:100220008081882349F700000F900F900F900F9066
:10023000DF91CF910895CF93DF931F92CDB7DEB7B3
:1002400089838981813128F4898181580E948E00B7
:1002500004C0898181550E948E0000000F90DF91BB
:10026000CF910895CF93DF9300D000D000D0CDB7C9
:10027000DEB79E838D831A82198213C01C821B8273
:1002800006C000008B819C8101969C838B838B81AF
:100290009C8187309340ACF389819A8101969A833F
:1002A000898329813A818D819E812817390734F30A
:1002B000000026960FB6F894DEBF0FBECDBFDF91CB
:1002C000CF910895CF93DF9300D01F92CDB7DEB7C3
:1002D00089837B836A8389818A3031F48A819B8117
:1002E000BC018DE00E94620180EC90E0FC01808105
:1002F000882F90E080729927892BB1F386EC90E0EB
:100300002981FC01208380E090E00F900F900F90F6
:10031000DF91CF9108950F931F93CF93DF9300D078
:1003200000D0CDB7DEB769837A838B839C838091BD
:100330000E0190910F01A0911001B09111019C014B
:10034000AD0169817A818B819C810E94460388235B
:1003500009F472C020E030E0A90169817A818B81C3
:100360009C810E944603882351F485E490E025E4B3
:1003700030E0F90120812870FC01208309C085E468
:1003800090E025E430E0F90120812360FC01208326
:1003900028E539E344E75FE369817A818B819C81B9
:1003A0000E944603882334F487E490E02FEFFC0199
:1003B000208332C020E034E244EF56E469817A8140
:1003C0008B819C810E94680418162CF487E490E0CD
:1003D000FC01108221C007E410E020E030E040E0A2
:1003E00053E469817A818B819C810E946D04DC01D8
:1003F000CB019C01AD0160E074E284EF9AE40E94BD
:100400004B03DC01CB01BC01CD010E94BD03DC012B
:10041000CB018150F801808386E490E0FC011082DA
:1004200089819A81AB81BC8180930E0190930F01E9
:10043000A0931001B093110100000F900F900F9046
:100440000F90DF91CF911F910F910895CF93DF937C
:10045000CDB7DEB784E490E021E4FC01208385E49D
:1004600090E02BE0FC01208360E070E0CB010E9473
:100470008B010000DF91CF910895CF93DF93CDB72B
:10048000DEB784E490E0FC01108285E490E0FC019A
:1004900010820000DF91CF910895CF93DF93CDB705
:1004A000DEB780911201909113018230910509F419
:1004B0003FC08330910528F4009759F0019781F0EF
:1004C0006DC08330910509F445C0049709F454C008
:1004D00065C081E090E0909313018093120163C0A6
:1004E00080911601882339F082E090E09093130107
:1004F0008093120158C080911501882339F083E060
:1005000090E090931301809312014DC080911401EB
:10051000882339F084E090E09093130180931201D6
:1005200042C081E090E090931301809312013BC0A0
:1005300080911601882339F082E090E090931301B6
:100540008093120130C081E090E09093130180937A
:10055000120129C080911501882339F083E090E0D1
:1005600090931301809312011EC081E090E090935C
:1005700013018093120117C080911401882339F070
:1005800084E090E090931301809312010CC081E00D
:1005900090E0909313018093120105C01092130113
:1005A000109212010000809112019091130182308B
:1005B0009105A1F08330910528F4009721F101976E
:1005C00039F022C08330910581F00497A9F01CC056
:1005D00060E070E0CB010E948B0116C064EA70ED10
:1005E00082E893E40E948B010FC06BE774ED82E90F
:1005F00093E40E948B0108C064EA70ED84EA93E4FE
:100600000E948B0101C000000000DF91CF9108958E
:10061000CF93DF93CDB7DEB781E290E0FC0110828B
:1006200082E290E02FEFFC01208384E290E02FEF44
:10063000FC01208385E290E0FC0110820E942602EA
:10064000109213011092120180E290E0FC0180816F
:10065000882F90E08170992721E0892B09F020E014
:10066000822F8093160180E290E0FC0180818095CA
:1006700082708093150180E290E0FC01808180957A
:100680008470809314010E944D02DECF0E94F30318
:1006900008F481E008950E945F030C942E040E94E8
:1006A000270458F00E94200440F029F45F3F29F00D
:1006B0000C94170451110C9462040C941D040E94B4
:1006C0003F0468F39923B1F3552391F3951B550B20
:1006D000BB27AA2762177307840738F09F5F5F4F15
:1006E000220F331F441FAA1FA9F335D00E2E3AF054
:1006F000E0E832D091505040E695001CCAF72BD06C
:10070000FE2F29D0660F771F881FBB1F26173707BC
:100710004807AB07B0E809F0BB0B802DBF01FF27EE
:1007200093585F4F3AF09E3F510578F00C941704B0
:100730000C9462045F3FE4F3983ED4F3869577957A
:100740006795B795F7959F5FC9F7880F911D9695A7
:10075000879597F90895E1E0660F771F881FBB1F03
:10076000621773078407BA0720F0621B730B840BB0
:10077000BA0BEE1F88F7E09508950E94C4036894B1
:10078000B1110C94620408950E94470488F09F57A9
:1007900098F0B92F9927B751B0F0E1F0660F771FA5
:1007A000881F991F1AF0BA95C9F714C0B13091F09B
:1007B0000E946104B1E008950C946104672F782FC2
:1007C0008827B85F39F0B93FCCF386957795679560
:1007D000B395D9F73EF490958095709561957F4FCC
:1007E0008F4F9F4F0895990F0008550FAA0BE0E80F
:1007F000FEEF16161706E807F907C0F012161306E3
:10080000E407F50798F0621B730B840B950B39F422
:100810000A2661F0232B242B252B21F408950A2688
:1008200009F4A140A6958FEF811D811D089597F9C8
:100830009F6780E870E060E008959FEF80EC089586
:1008400000240A94161617061806090608950024AF
:100850000A9412161306140605060895092E039429
:10086000000C11F4882352F0BB0F40F4BF2B11F49D
:1008700060FF04C06F5F7F4F8F4F9F4F089557FDFC
:100880009058440F551F59F05F3F71F04795880FFE
:1008900097FB991F61F09F3F79F087950895121695
:1008A00013061406551FF2CF4695F1DF08C0161641
:1008B00017061806991FF1CF8695710561050894F2
:1008C0000895E894BB2766277727CB0197F9089509
:1008D0000E94F30308F48FEF08950E9480040C94A3
:1008E0002E040E94200438F00E94270420F0952353
:1008F00011F00C9417040C941D0411240C94620440
:100900000E943F0470F3959FC1F3950F50E0551F6F
:10091000629FF001729FBB27F00DB11D639FAA2754
:10092000F00DB11DAA1F649F6627B00DA11D661FA3
:10093000829F2227B00DA11D621F739FB00DA11DC4
:10094000621F839FA00D611D221F749F3327A00D7E
:10095000611D231F849F600D211D822F762F6A2F1A
:1009600011249F5750409AF0F1F088234AF0EE0F7F
:10097000FF1FBB1F661F771F881F91505040A9F7AC
:100980009E3F510580F00C9417040C9462045F3F65
:10099000E4F3983ED4F3869577956795B795F795E8
:1009A000E7959F5FC1F7FE2B880F911D9695879560
:0809B00097F90895F894FFCFB8
:0E09B8000000000200000000620100000000CC
:00000001FF
