:100000000C9458000C9477000C9477000C947700B3
:100010000C9477000C9477000C9477000C94770084
:100020000C9477000C9477000C9477000C94770074
:100030000C9477000C9477000C9477000C94770064
:100040000C9477000C9477000C9477000C94770054
:100050000C9477000C9477000C9477000C94770044
:100060000C9477000C9477000C9477000C94770034
:100070000C9477000C9477000C9477000C94770024
:100080000C9477000C9477000C9477007E02850224
:10009000BF02C602D802DF020303F1021503700398
:1000A000700340037003540370036B036803700311
:1000B00011241FBECFEFD0E4DEBFCDBF11E0A0E022
:1000C000B1E0E8EAFAE000E00BBF02C007900D9251
:1000D000AE32B107D9F721E0AEE2B1E001C01D9226
:1000E000A833B207E1F70E9475030C9452050C94F3
:1000F0000000CF93DF93CDB7DEB781E00E94A00070
:100100000000DF91CF910895CF93DF93CDB7DEB795
:1001100084E690E00E94440188E30E94A00086E00B
:100120000E94A0008FE00E94A00081E00E94A00039
:100130008AE090E00E9444010000DF91CF91089591
:10014000CF93DF931F92CDB7DEB789838BE290E028
:100150002BE230E0F90120812F7BFC01208388E233
:1001600090E02981FC0120838BE290E02BE230E0DB
:10017000F90120812068FC01208300008BE290E0DF
:100180002BE230E0F90120812F77FC01208382E00F
:1001900090E00E94440100000F90DF91CF910895FC
:1001A000CF93DF931F92CDB7DEB789838BE290E0C8
:1001B0002BE230E0F90120812064FC01208388E2F9
:1001C00090E02981FC0120838BE290E02BE230E07B
:1001D000F90120812068FC01208300008BE290E07F
:1001E0002BE230E0F90120812F77FC01208381E0B0
:1001F00090E00E94440100000F90DF91CF9108959C
:10020000CF93DF9300D000D0CDB7DEB78A837C8355
:100210006B830E9479008A81898311C0898191E072
:10022000980F99830E942D018B819C819C012F5FE7
:100230003F4F3C832B83FC0180810E94D0008B8147
:100240009C81FC018081882349F700000F900F906A
:100250000F900F90DF91CF910895CF93DF931F926E
:10026000CDB7DEB789838981813128F489818158AE
:100270000E94A00004C0898181550E94A000000056
:100280000F90DF91CF910895CF93DF9300D000D0EE
:1002900000D0CDB7DEB79E838D831A82198213C03A
:1002A0001C821B8206C000008B819C8101969C836E
:1002B0008B838B819C8187309340ACF389819A81B9
:1002C00001969A83898329813A818D819E8128179D
:1002D000390734F3000026960FB6F894DEBF0FBE40
:1002E000CDBFDF91CF910895CF93DF9300D01F92C0
:1002F000CDB7DEB789837B836A8389818A3031F405
:100300008A819B81BC018DE00E94740180EC90E0A9
:10031000FC018081882F90E080729927892BB1F3AE
:1003200086EC90E02981FC01208380E090E00F9032
:100330000F900F90DF91CF9108950F931F93CF935C
:10034000DF9300D000D0CDB7DEB769837A838B838B
:100350009C8380912F0190913001A0913101B09147
:1003600032019C01AD0169817A818B819C810E945F
:10037000BE03882309F477C020E030E0A901698139
:100380007A818B819C810E94BE03882351F481E98C
:1003900090E021E930E0F90120812870FC01208300
:1003A00009C081E990E021E930E0F9012081236072
:1003B000FC01208328E539E344E75FE369817A8122
:1003C0008B819C810E94BE03882344F488E990E0DD
:1003D0002FEF3FEFFC013183208334C020E034E273
:1003E00044EF56E469817A818B819C810E94E0040C
:1003F000181634F488E990E0FC011182108222C0C2
:1004000008E910E020E030E040E053E469817A81BF
:100410008B819C810E94E504DC01CB019C01AD0134
:1004200060E074E284EF9AE40E94C303DC01CB0134
:10043000BC01CD010E943504DC01CB010197F8011C
:100440009183808384E990E0FC011182108289818C
:100450009A81AB81BC8180932F0190933001A0934E
:100460003101B093320100000F900F900F900F9068
:10047000DF91CF911F910F910895CF93DF93CDB767
:10048000DEB780E990E020E4FC01208381E990E080
:100490002BE0FC01208360E070E0CB010E949D0115
:1004A0000000DF91CF910895CF93DF93CDB7DEB7F2
:1004B00080E990E0FC01108281E990E0FC0110826B
:1004C0000000DF91CF910895CF93DF93CDB7DEB7D2
:1004D0008091330190913401CC01A0E0B0E040E084
:1004E00050E028E030E0841B950B2817390708F40A
:1004F000ADC08A5B9F4FFC010C94B50387E090E090
:100500009093340180933301A6C0809137018823F2
:1005100081F080912E01873028F480912E018F5F29
:1005200080932E0182E090E0909334018093330118
:1005300092C080913601882381F080912E0188231A
:1005400029F080912E01815080932E0184E090E06B
:1005500090933401809333017EC0809135018823CC
:1005600039F088E090E0909334018093330173C0B8
:1005700081E090E090933401809333016CC083E07C
:1005800090E0909334018093330165C080913701EE
:10059000882339F481E090E0909334018093330113
:1005A0005AC083E090E0909334018093330153C0AC
:1005B00085E090E090933401809333014CC08091AA
:1005C0003601882339F481E090E0909334018093E0
:1005D000330141C085E090E0909334018093330172
:1005E0003AC080913501882339F086E090E09093FD
:1005F0003401809333012FC087E090E09093340161
:100600008093330128C080913501882339F481E03B
:1006100090E090933401809333011DC086E090E018
:10062000909334018093330116C080913501882363
:1006300039F487E090E0909334018093330106C051
:1006400088E090E09093340180933301109234015C
:100650001092330100008091330190913401CC015C
:10066000A0E0B0E040E050E028E030E0841B950BD3
:100670002817390798F1815B9F4FFC010C94B50353
:1006800080912E01882F90E0880F991F880F991F65
:10069000825F9E4FFC0180819181A281B381BC0168
:1006A000CD010E949D011DC080912E01882F90E0F8
:1006B000880F991F880F991F825F9E4FFC018081D0
:1006C0009181A281B381BC01CD010E949D0109C02D
:1006D0000E94540206C00E943D0203C0000001C0F7
:1006E00000000000DF91CF910895CF93DF93CDB745
:1006F000DEB781E290E0FC01108282E290E02FEF11
:10070000FC01208384E290E02FEFFC01208385E24E
:1007100090E0FC0110820E943D0210923401109280
:10072000330110922E0180E290E0FC018081882F3D
:1007300090E08170992721E0892B09F020E0822F39
:100740008093370180E290E0FC0180818095827087
:100750008093360180E290E0FC0180818095847076
:10076000809335010E946402DECFEE0FFF1F00244C
:10077000001C0BBE0790F691E02D09940E946B04BB
:1007800008F481E008950E94D7030C94A6040E9407
:100790009F0458F00E94980440F029F45F3F29F02C
:1007A0000C948F0451110C94DA040C9495040E945B
:1007B000B70468F39923B1F3552391F3951B550BB7
:1007C000BB27AA2762177307840738F09F5F5F4F24
:1007D000220F331F441FAA1FA9F335D00E2E3AF063
:1007E000E0E832D091505040E695001CCAF72BD07B
:1007F000FE2F29D0660F771F881FBB1F26173707CC
:100800004807AB07B0E809F0BB0B802DBF01FF27FD
:1008100093585F4F3AF09E3F510578F00C948F0447
:100820000C94DA045F3FE4F3983ED4F38695779511
:100830006795B795F7959F5FC9F7880F911D9695B6
:10084000879597F90895E1E0660F771F881FBB1F12
:10085000621773078407BA0720F0621B730B840BBF
:10086000BA0BEE1F88F7E09508950E943C04689447
:10087000B1110C94DA0408950E94BF0488F09F57C8
:1008800098F0B92F9927B751B0F0E1F0660F771FB4
:10089000881F991F1AF0BA95C9F714C0B13091F0AA
:1008A0000E94D904B1E008950C94D904672F782FE1
:1008B0008827B85F39F0B93FCCF38695779567956F
:1008C000B395D9F73EF490958095709561957F4FDB
:1008D0008F4F9F4F0895990F0008550FAA0BE0E81E
:1008E000FEEF16161706E807F907C0F012161306F2
:1008F000E407F50798F0621B730B840B950B39F432
:100900000A2661F0232B242B252B21F408950A2697
:1009100009F4A140A6958FEF811D811D089597F9D7
:100920009F6780E870E060E008959FEF80EC089595
:1009300000240A94161617061806090608950024BE
:100940000A9412161306140605060895092E039438
:10095000000C11F4882352F0BB0F40F4BF2B11F4AC
:1009600060FF04C06F5F7F4F8F4F9F4F089557FD0B
:100970009058440F551F59F05F3F71F04795880F0D
:1009800097FB991F61F09F3F79F0879508951216A4
:1009900013061406551FF2CF4695F1DF08C0161650
:1009A00017061806991FF1CF869571056105089401
:1009B0000895E894BB2766277727CB0197F9089518
:1009C0000E946B0408F48FEF08950E94F8040C94C1
:1009D000A6040E94980438F00E949F0420F09523FA
:1009E00011F00C948F040C94950411240C94DA04E7
:1009F0000E94B70470F3959FC1F3950F50E0551F07
:100A0000629FF001729FBB27F00DB11D639FAA2763
:100A1000F00DB11DAA1F649F6627B00DA11D661FB2
:100A2000829F2227B00DA11D621F739FB00DA11DD3
:100A3000621F839FA00D611D221F749F3327A00D8D
:100A4000611D231F849F600D211D822F762F6A2F29
:100A500011249F5750409AF0F1F088234AF0EE0F8E
:100A6000FF1FBB1F661F771F881F91505040A9F7BB
:100A70009E3F510580F00C948F040C94DA045F3F84
:100A8000E4F3983ED4F3869577956795B795F795F7
:100A9000E7959F5FC1F7FE2B880F911D969587956F
:080AA00097F90895F894FFCFC7
:100AA8000000000200000000740100000000A4D053
:100AB80082437BD49243A4D0A443719DAE430000EB
:0E0AC800C4430000DC43A4F0F64300D0024417
:00000001FF
